{
  "contractName": "EHRContract",
  "abi": [
    {
      "inputs": [
        {
          "internalType": "uint256",
          "name": "",
          "type": "uint256"
        },
        {
          "internalType": "uint256",
          "name": "",
          "type": "uint256"
        }
      ],
      "name": "medicalImages",
      "outputs": [
        {
          "internalType": "uint256",
          "name": "date",
          "type": "uint256"
        },
        {
          "internalType": "bytes",
          "name": "image",
          "type": "bytes"
        },
        {
          "internalType": "string",
          "name": "description",
          "type": "string"
        }
      ],
      "stateMutability": "view",
      "type": "function",
      "constant": true
    },
    {
      "inputs": [
        {
          "internalType": "uint256",
          "name": "",
          "type": "uint256"
        },
        {
          "internalType": "uint256",
          "name": "",
          "type": "uint256"
        }
      ],
      "name": "medicalRecords",
      "outputs": [
        {
          "internalType": "uint256",
          "name": "date",
          "type": "uint256"
        },
        {
          "internalType": "string",
          "name": "diagnosis",
          "type": "string"
        },
        {
          "internalType": "string",
          "name": "medicines",
          "type": "string"
        }
      ],
      "stateMutability": "view",
      "type": "function",
      "constant": true
    },
    {
      "inputs": [
        {
          "internalType": "uint256",
          "name": "",
          "type": "uint256"
        }
      ],
      "name": "patients",
      "outputs": [
        {
          "internalType": "string",
          "name": "name",
          "type": "string"
        },
        {
          "internalType": "uint256",
          "name": "age",
          "type": "uint256"
        },
        {
          "internalType": "string",
          "name": "gender",
          "type": "string"
        }
      ],
      "stateMutability": "view",
      "type": "function",
      "constant": true
    },
    {
      "inputs": [
        {
          "internalType": "uint256",
          "name": "",
          "type": "uint256"
        }
      ],
      "name": "recordCount",
      "outputs": [
        {
          "internalType": "uint256",
          "name": "",
          "type": "uint256"
        }
      ],
      "stateMutability": "view",
      "type": "function",
      "constant": true
    },
    {
      "inputs": [
        {
          "internalType": "uint256",
          "name": "_patientId",
          "type": "uint256"
        },
        {
          "internalType": "uint256",
          "name": "_recordIndex",
          "type": "uint256"
        },
        {
          "internalType": "uint256",
          "name": "_date",
          "type": "uint256"
        },
        {
          "internalType": "bytes",
          "name": "_image",
          "type": "bytes"
        },
        {
          "internalType": "string",
          "name": "_description",
          "type": "string"
        }
      ],
      "name": "addMedicalImage",
      "outputs": [],
      "stateMutability": "nonpayable",
      "type": "function"
    },
    {
      "inputs": [
        {
          "internalType": "uint256",
          "name": "_patientId",
          "type": "uint256"
        },
        {
          "internalType": "uint256",
          "name": "_recordIndex",
          "type": "uint256"
        }
      ],
      "name": "getMedicalImages",
      "outputs": [
        {
          "components": [
            {
              "internalType": "uint256",
              "name": "date",
              "type": "uint256"
            },
            {
              "internalType": "bytes",
              "name": "image",
              "type": "bytes"
            },
            {
              "internalType": "string",
              "name": "description",
              "type": "string"
            }
          ],
          "internalType": "struct EHRContract.MedicalImage",
          "name": "",
          "type": "tuple"
        }
      ],
      "stateMutability": "view",
      "type": "function",
      "constant": true
    },
    {
      "inputs": [
        {
          "internalType": "uint256",
          "name": "_patientId",
          "type": "uint256"
        },
        {
          "internalType": "string",
          "name": "_name",
          "type": "string"
        },
        {
          "internalType": "uint256",
          "name": "_age",
          "type": "uint256"
        },
        {
          "internalType": "string",
          "name": "_gender",
          "type": "string"
        }
      ],
      "name": "addPatient",
      "outputs": [],
      "stateMutability": "nonpayable",
      "type": "function"
    },
    {
      "inputs": [
        {
          "internalType": "uint256",
          "name": "_patientId",
          "type": "uint256"
        },
        {
          "internalType": "uint256",
          "name": "_date",
          "type": "uint256"
        },
        {
          "internalType": "string",
          "name": "_diagnosis",
          "type": "string"
        },
        {
          "internalType": "string",
          "name": "_medicines",
          "type": "string"
        }
      ],
      "name": "addMedicalRecord",
      "outputs": [],
      "stateMutability": "nonpayable",
      "type": "function"
    },
    {
      "inputs": [
        {
          "internalType": "uint256",
          "name": "_patientId",
          "type": "uint256"
        }
      ],
      "name": "getPatientDetails",
      "outputs": [
        {
          "internalType": "string",
          "name": "",
          "type": "string"
        },
        {
          "internalType": "uint256",
          "name": "",
          "type": "uint256"
        },
        {
          "internalType": "string",
          "name": "",
          "type": "string"
        }
      ],
      "stateMutability": "view",
      "type": "function",
      "constant": true
    },
    {
      "inputs": [
        {
          "internalType": "uint256",
          "name": "_patientId",
          "type": "uint256"
        }
      ],
      "name": "getMedicalRecords",
      "outputs": [
        {
          "components": [
            {
              "internalType": "uint256",
              "name": "date",
              "type": "uint256"
            },
            {
              "internalType": "string",
              "name": "diagnosis",
              "type": "string"
            },
            {
              "internalType": "string",
              "name": "medicines",
              "type": "string"
            }
          ],
          "internalType": "struct EHRContract.MedicalRecord[]",
          "name": "",
          "type": "tuple[]"
        }
      ],
      "stateMutability": "view",
      "type": "function",
      "constant": true
    }
  ],
  "bytecode": "0x608060405234801561001057600080fd5b50611870806100206000396000f3fe608060405234801561001057600080fd5b506004361061009e5760003560e01c806393119a831161006657806393119a831461016f5780639b1639b8146101a1578063dbc9cc53146101bd578063ee961379146101ed578063ffbcfac21461021f5761009e565b80630f0f51ab146100a357806328c5a166146100bf578063300c601c146100ef578063545a9ece146101215780635574025014610153575b600080fd5b6100bd60048036038101906100b89190611008565b61024f565b005b6100d960048036038101906100d491906110a7565b61031d565b6040516100e6919061122a565b60405180910390f35b6101096004803603810190610104919061124c565b610489565b604051610118939291906112d2565b60405180910390f35b61013b600480360381019061013691906110a7565b6105f7565b60405161014a93929190611361565b60405180910390f35b61016d600480360381019061016891906113a6565b61073e565b005b6101896004803603810190610184919061124c565b6107bf565b604051610198939291906112d2565b60405180910390f35b6101bb60048036038101906101b691906114e6565b6108f9565b005b6101d760048036038101906101d2919061124c565b61098b565b6040516101e49190611599565b60405180910390f35b610207600480360381019061020291906110a7565b6109a3565b604051610216939291906115b4565b60405180910390f35b6102396004803603810190610234919061124c565b610aea565b6040516102469190611712565b60405180910390f35b6000604051806060016040528085815260200184815260200183815250905080600360008781526020019081526020016000206000600260008981526020019081526020016000205481526020019081526020016000206000820151816000015560208201518160010190805190602001906102cc929190610d0d565b5060408201518160020190805190602001906102e9929190610d0d565b5090505060026000868152602001908152602001600020600081548092919061031190611763565b91905055505050505050565b610325610d93565b60008084815260200190815260200160002060008381526020019081526020016000206040518060600160405290816000820154815260200160018201805461036d906117da565b80601f0160208091040260200160405190810160405280929190818152602001828054610399906117da565b80156103e65780601f106103bb576101008083540402835291602001916103e6565b820191906000526020600020905b8154815290600101906020018083116103c957829003601f168201915b505050505081526020016002820180546103ff906117da565b80601f016020809104026020016040519081016040528092919081815260200182805461042b906117da565b80156104785780601f1061044d57610100808354040283529160200191610478565b820191906000526020600020905b81548152906001019060200180831161045b57829003601f168201915b505050505081525050905092915050565b606060006060600160008581526020019081526020016000206000016001600086815260200190815260200160002060010154600160008781526020019081526020016000206002018280546104de906117da565b80601f016020809104026020016040519081016040528092919081815260200182805461050a906117da565b80156105575780601f1061052c57610100808354040283529160200191610557565b820191906000526020600020905b81548152906001019060200180831161053a57829003601f168201915b5050505050925080805461056a906117da565b80601f0160208091040260200160405190810160405280929190818152602001828054610596906117da565b80156105e35780601f106105b8576101008083540402835291602001916105e3565b820191906000526020600020905b8154815290600101906020018083116105c657829003601f168201915b505050505090509250925092509193909250565b60006020528160005260406000206020528060005260406000206000915091505080600001549080600101805461062d906117da565b80601f0160208091040260200160405190810160405280929190818152602001828054610659906117da565b80156106a65780601f1061067b576101008083540402835291602001916106a6565b820191906000526020600020905b81548152906001019060200180831161068957829003601f168201915b5050505050908060020180546106bb906117da565b80601f01602080910402602001604051908101604052809291908181526020018280546106e7906117da565b80156107345780601f1061070957610100808354040283529160200191610734565b820191906000526020600020905b81548152906001019060200180831161071757829003601f168201915b5050505050905083565b600060405180606001604052808581526020018481526020018381525090508060016000878152602001908152602001600020600082015181600001908051906020019061078d929190610d0d565b506020820151816001015560408201518160020190805190602001906107b4929190610d0d565b509050505050505050565b60016020528060005260406000206000915090508060000180546107e2906117da565b80601f016020809104026020016040519081016040528092919081815260200182805461080e906117da565b801561085b5780601f106108305761010080835404028352916020019161085b565b820191906000526020600020905b81548152906001019060200180831161083e57829003601f168201915b505050505090806001015490806002018054610876906117da565b80601f01602080910402602001604051908101604052809291908181526020018280546108a2906117da565b80156108ef5780601f106108c4576101008083540402835291602001916108ef565b820191906000526020600020905b8154815290600101906020018083116108d257829003601f168201915b5050505050905083565b60006040518060600160405280858152602001848152602001838152509050806000808881526020019081526020016000206000878152602001908152602001600020600082015181600001556020820151816001019080519060200190610962929190610db4565b50604082015181600201908051906020019061097f929190610d0d565b50905050505050505050565b60026020528060005260406000206000915090505481565b6003602052816000526040600020602052806000526040600020600091509150508060000154908060010180546109d9906117da565b80601f0160208091040260200160405190810160405280929190818152602001828054610a05906117da565b8015610a525780601f10610a2757610100808354040283529160200191610a52565b820191906000526020600020905b815481529060010190602001808311610a3557829003601f168201915b505050505090806002018054610a67906117da565b80601f0160208091040260200160405190810160405280929190818152602001828054610a93906117da565b8015610ae05780601f10610ab557610100808354040283529160200191610ae0565b820191906000526020600020905b815481529060010190602001808311610ac357829003601f168201915b5050505050905083565b60606000600260008481526020019081526020016000205467ffffffffffffffff811115610b1b57610b1a610edd565b5b604051908082528060200260200182016040528015610b5457816020015b610b41610e3a565b815260200190600190039081610b395790505b50905060005b6002600085815260200190815260200160002054811015610d035760036000858152602001908152602001600020600082815260200190815260200160002060405180606001604052908160008201548152602001600182018054610bbe906117da565b80601f0160208091040260200160405190810160405280929190818152602001828054610bea906117da565b8015610c375780601f10610c0c57610100808354040283529160200191610c37565b820191906000526020600020905b815481529060010190602001808311610c1a57829003601f168201915b50505050508152602001600282018054610c50906117da565b80601f0160208091040260200160405190810160405280929190818152602001828054610c7c906117da565b8015610cc95780601f10610c9e57610100808354040283529160200191610cc9565b820191906000526020600020905b815481529060010190602001808311610cac57829003601f168201915b505050505081525050828281518110610ce557610ce461180b565b5b60200260200101819052508080610cfb90611763565b915050610b5a565b5080915050919050565b828054610d19906117da565b90600052602060002090601f016020900481019282610d3b5760008555610d82565b82601f10610d5457805160ff1916838001178555610d82565b82800160010185558215610d82579182015b82811115610d81578251825591602001919060010190610d66565b5b509050610d8f9190610e5b565b5090565b60405180606001604052806000815260200160608152602001606081525090565b828054610dc0906117da565b90600052602060002090601f016020900481019282610de25760008555610e29565b82601f10610dfb57805160ff1916838001178555610e29565b82800160010185558215610e29579182015b82811115610e28578251825591602001919060010190610e0d565b5b509050610e369190610e5b565b5090565b60405180606001604052806000815260200160608152602001606081525090565b5b80821115610e74576000816000905550600101610e5c565b5090565b6000604051905090565b600080fd5b600080fd5b6000819050919050565b610e9f81610e8c565b8114610eaa57600080fd5b50565b600081359050610ebc81610e96565b92915050565b600080fd5b600080fd5b6000601f19601f8301169050919050565b7f4e487b7100000000000000000000000000000000000000000000000000000000600052604160045260246000fd5b610f1582610ecc565b810181811067ffffffffffffffff82111715610f3457610f33610edd565b5b80604052505050565b6000610f47610e78565b9050610f538282610f0c565b919050565b600067ffffffffffffffff821115610f7357610f72610edd565b5b610f7c82610ecc565b9050602081019050919050565b82818337600083830152505050565b6000610fab610fa684610f58565b610f3d565b905082815260208101848484011115610fc757610fc6610ec7565b5b610fd2848285610f89565b509392505050565b600082601f830112610fef57610fee610ec2565b5b8135610fff848260208601610f98565b91505092915050565b6000806000806080858703121561102257611021610e82565b5b600061103087828801610ead565b945050602061104187828801610ead565b935050604085013567ffffffffffffffff81111561106257611061610e87565b5b61106e87828801610fda565b925050606085013567ffffffffffffffff81111561108f5761108e610e87565b5b61109b87828801610fda565b91505092959194509250565b600080604083850312156110be576110bd610e82565b5b60006110cc85828601610ead565b92505060206110dd85828601610ead565b9150509250929050565b6110f081610e8c565b82525050565b600081519050919050565b600082825260208201905092915050565b60005b83811015611130578082015181840152602081019050611115565b8381111561113f576000848401525b50505050565b6000611150826110f6565b61115a8185611101565b935061116a818560208601611112565b61117381610ecc565b840191505092915050565b600081519050919050565b600082825260208201905092915050565b60006111a58261117e565b6111af8185611189565b93506111bf818560208601611112565b6111c881610ecc565b840191505092915050565b60006060830160008301516111eb60008601826110e7565b50602083015184820360208601526112038282611145565b9150506040830151848203604086015261121d828261119a565b9150508091505092915050565b6000602082019050818103600083015261124481846111d3565b905092915050565b60006020828403121561126257611261610e82565b5b600061127084828501610ead565b91505092915050565b600082825260208201905092915050565b60006112958261117e565b61129f8185611279565b93506112af818560208601611112565b6112b881610ecc565b840191505092915050565b6112cc81610e8c565b82525050565b600060608201905081810360008301526112ec818661128a565b90506112fb60208301856112c3565b818103604083015261130d818461128a565b9050949350505050565b600082825260208201905092915050565b6000611333826110f6565b61133d8185611317565b935061134d818560208601611112565b61135681610ecc565b840191505092915050565b600060608201905061137660008301866112c3565b81810360208301526113888185611328565b9050818103604083015261139c818461128a565b9050949350505050565b600080600080608085870312156113c0576113bf610e82565b5b60006113ce87828801610ead565b945050602085013567ffffffffffffffff8111156113ef576113ee610e87565b5b6113fb87828801610fda565b935050604061140c87828801610ead565b925050606085013567ffffffffffffffff81111561142d5761142c610e87565b5b61143987828801610fda565b91505092959194509250565b600067ffffffffffffffff8211156114605761145f610edd565b5b61146982610ecc565b9050602081019050919050565b600061148961148484611445565b610f3d565b9050828152602081018484840111156114a5576114a4610ec7565b5b6114b0848285610f89565b509392505050565b600082601f8301126114cd576114cc610ec2565b5b81356114dd848260208601611476565b91505092915050565b600080600080600060a0868803121561150257611501610e82565b5b600061151088828901610ead565b955050602061152188828901610ead565b945050604061153288828901610ead565b935050606086013567ffffffffffffffff81111561155357611552610e87565b5b61155f888289016114b8565b925050608086013567ffffffffffffffff8111156115805761157f610e87565b5b61158c88828901610fda565b9150509295509295909350565b60006020820190506115ae60008301846112c3565b92915050565b60006060820190506115c960008301866112c3565b81810360208301526115db818561128a565b905081810360408301526115ef818461128a565b9050949350505050565b600081519050919050565b600082825260208201905092915050565b6000819050602082019050919050565b600060608301600083015161163d60008601826110e7565b5060208301518482036020860152611655828261119a565b9150506040830151848203604086015261166f828261119a565b9150508091505092915050565b60006116888383611625565b905092915050565b6000602082019050919050565b60006116a8826115f9565b6116b28185611604565b9350836020820285016116c485611615565b8060005b8581101561170057848403895281516116e1858261167c565b94506116ec83611690565b925060208a019950506001810190506116c8565b50829750879550505050505092915050565b6000602082019050818103600083015261172c818461169d565b905092915050565b7f4e487b7100000000000000000000000000000000000000000000000000000000600052601160045260246000fd5b600061176e82610e8c565b91507fffffffffffffffffffffffffffffffffffffffffffffffffffffffffffffffff82036117a05761179f611734565b5b600182019050919050565b7f4e487b7100000000000000000000000000000000000000000000000000000000600052602260045260246000fd5b600060028204905060018216806117f257607f821691505b602082108103611805576118046117ab565b5b50919050565b7f4e487b7100000000000000000000000000000000000000000000000000000000600052603260045260246000fdfea2646970667358221220045c2f59c673528fa7a39f17e24edb26924be258af5d1682044a3706f406732f64736f6c634300080d0033",
  "immutableReferences": {},
  "source": "// SPDX-License-Identifier: MIT\r\npragma solidity >=0.4.22 <0.9.0;\r\n\r\ncontract EHRContract {\r\n    // Patient struct to store images\r\n    struct MedicalImage {\r\n        uint256 date;\r\n        bytes image; // Store the image data as bytes\r\n        string description;\r\n    }\r\n\r\n    // Patient struct to store patient details\r\n    struct Patient {\r\n        string name;\r\n        uint256 age;\r\n        string gender;\r\n    }\r\n\r\n    // MedicalRecord struct to store health records\r\n    struct MedicalRecord {\r\n        uint256 date;\r\n        string diagnosis;\r\n        string medicines;\r\n    }\r\n\r\n    // Mapping to store medical images for each patient\r\n    mapping(uint256 => mapping(uint256 => MedicalImage)) public medicalImages;\r\n\r\n    // Mapping to store patient details based on patient ID\r\n    mapping(uint256 => Patient) public patients;\r\n\r\n    // Mapping to store the number of medical records for each patient\r\n    mapping(uint256 => uint256) public recordCount;\r\n\r\n    // Mapping to store medical records for each patient\r\n    mapping(uint256 => mapping(uint256 => MedicalRecord)) public medicalRecords;\r\n\r\n\r\n    // Function to add a new medical image linked to a patient\r\n    function addMedicalImage(uint256 _patientId, uint256 _recordIndex, uint256 _date, bytes memory _image, string memory _description) public {\r\n        MedicalImage memory newImage = MedicalImage(_date, _image, _description);\r\n        medicalImages[_patientId][_recordIndex] = newImage;\r\n    }\r\n\r\n    // Function to retrieve all medical images of a patient's record\r\n    function getMedicalImages(uint256 _patientId, uint256 _recordIndex) public view returns (MedicalImage memory) {\r\n        return medicalImages[_patientId][_recordIndex];\r\n    }\r\n\r\n    // Function to add a new patient\r\n    function addPatient(uint256 _patientId, string memory _name, uint256 _age, string memory _gender) public {\r\n        Patient memory newPatient = Patient(_name, _age, _gender);\r\n        patients[_patientId] = newPatient;\r\n    }\r\n\r\n    // Function to add a new medical record linked to a patient\r\n    function addMedicalRecord(uint256 _patientId, uint256 _date, string memory _diagnosis, string memory _medicines) public {\r\n        MedicalRecord memory newRecord = MedicalRecord(_date, _diagnosis, _medicines);\r\n        medicalRecords[_patientId][recordCount[_patientId]] = newRecord;\r\n        recordCount[_patientId]++;\r\n    }\r\n\r\n    // Function to retrieve patient details\r\n    function getPatientDetails(uint256 _patientId) public view returns (string memory, uint256, string memory) {\r\n        return (patients[_patientId].name, patients[_patientId].age, patients[_patientId].gender);\r\n    }\r\n\r\n    // Function to retrieve all medical records of a patient\r\n    function getMedicalRecords(uint256 _patientId) public view returns (MedicalRecord[] memory) {\r\n        MedicalRecord[] memory records = new MedicalRecord[](recordCount[_patientId]);\r\n        for (uint256 i = 0; i < recordCount[_patientId]; i++) {\r\n            records[i] = medicalRecords[_patientId][i];\r\n        }\r\n        return records;\r\n    }\r\n}",
  "sourcePath": "C:\\Users\\Adity\\OneDrive\\Desktop\\snarks\\contracts\\EHRContract.sol",
  "compiler": {
    "name": "solc",
    "version": "0.8.13+commit.abaa5c0e.Emscripten.clang"
  },
  "schemaVersion": "3.4.16",
  "updatedAt": "2024-05-02T04:56:28.577Z",
  "networkType": "ethereum",
  "devdoc": {
    "kind": "dev",
    "methods": {},
    "version": 1
  },
  "userdoc": {
    "kind": "user",
    "methods": {},
    "version": 1
  }
}